{"abi":[{"type":"constructor","inputs":[],"stateMutability":"nonpayable"},{"type":"receive","stateMutability":"payable"},{"type":"function","name":"HOUSE_FEE_PERCENT","inputs":[],"outputs":[{"name":"","type":"uint256","internalType":"uint256"}],"stateMutability":"view"},{"type":"function","name":"batchClaimWinnings","inputs":[{"name":"pollId","type":"uint256","internalType":"uint256"},{"name":"winners","type":"address[]","internalType":"address[]"}],"outputs":[],"stateMutability":"nonpayable"},{"type":"function","name":"calculatePotentialWinnings","inputs":[{"name":"pollId","type":"uint256","internalType":"uint256"},{"name":"optionId","type":"uint256","internalType":"uint256"}],"outputs":[{"name":"payout","type":"uint256","internalType":"uint256"}],"stateMutability":"view"},{"type":"function","name":"claimWinnings","inputs":[{"name":"pollId","type":"uint256","internalType":"uint256"}],"outputs":[],"stateMutability":"nonpayable"},{"type":"function","name":"createPoll","inputs":[{"name":"question","type":"string","internalType":"string"},{"name":"options","type":"string[]","internalType":"string[]"},{"name":"stakeAmount","type":"uint256","internalType":"uint256"},{"name":"durationMinutes","type":"uint256","internalType":"uint256"},{"name":"isDemoMode","type":"bool","internalType":"bool"}],"outputs":[{"name":"pollId","type":"uint256","internalType":"uint256"}],"stateMutability":"nonpayable"},{"type":"function","name":"demoVote","inputs":[{"name":"pollId","type":"uint256","internalType":"uint256"},{"name":"optionId","type":"uint256","internalType":"uint256"},{"name":"tempVoterId","type":"bytes32","internalType":"bytes32"}],"outputs":[],"stateMutability":"nonpayable"},{"type":"function","name":"demoVotes","inputs":[{"name":"","type":"uint256","internalType":"uint256"},{"name":"","type":"bytes32","internalType":"bytes32"}],"outputs":[{"name":"voter","type":"address","internalType":"address"},{"name":"optionId","type":"uint256","internalType":"uint256"},{"name":"amount","type":"uint256","internalType":"uint256"},{"name":"timestamp","type":"uint256","internalType":"uint256"}],"stateMutability":"view"},{"type":"function","name":"emergencyResolvePoll","inputs":[{"name":"pollId","type":"uint256","internalType":"uint256"}],"outputs":[],"stateMutability":"nonpayable"},{"type":"function","name":"getOptionPools","inputs":[{"name":"pollId","type":"uint256","internalType":"uint256"}],"outputs":[{"name":"pools","type":"uint256[]","internalType":"uint256[]"}],"stateMutability":"view"},{"type":"function","name":"getPoll","inputs":[{"name":"pollId","type":"uint256","internalType":"uint256"}],"outputs":[{"name":"poll","type":"tuple","internalType":"struct VoteRush.Poll","components":[{"name":"question","type":"string","internalType":"string"},{"name":"options","type":"string[]","internalType":"string[]"},{"name":"stakeAmount","type":"uint256","internalType":"uint256"},{"name":"endTime","type":"uint256","internalType":"uint256"},{"name":"winningOption","type":"uint256","internalType":"uint256"},{"name":"resolved","type":"bool","internalType":"bool"},{"name":"creator","type":"address","internalType":"address"},{"name":"isDemoMode","type":"bool","internalType":"bool"}]}],"stateMutability":"view"},{"type":"function","name":"getTimeRemaining","inputs":[{"name":"pollId","type":"uint256","internalType":"uint256"}],"outputs":[{"name":"timeLeft","type":"uint256","internalType":"uint256"}],"stateMutability":"view"},{"type":"function","name":"getTotalPool","inputs":[{"name":"pollId","type":"uint256","internalType":"uint256"}],"outputs":[{"name":"total","type":"uint256","internalType":"uint256"}],"stateMutability":"view"},{"type":"function","name":"getUserVote","inputs":[{"name":"pollId","type":"uint256","internalType":"uint256"},{"name":"user","type":"address","internalType":"address"}],"outputs":[{"name":"voted","type":"bool","internalType":"bool"},{"name":"optionId","type":"uint256","internalType":"uint256"},{"name":"amount","type":"uint256","internalType":"uint256"}],"stateMutability":"view"},{"type":"function","name":"getVoteCounts","inputs":[{"name":"pollId","type":"uint256","internalType":"uint256"}],"outputs":[{"name":"counts","type":"uint256[]","internalType":"uint256[]"}],"stateMutability":"view"},{"type":"function","name":"hasClaimed","inputs":[{"name":"","type":"uint256","internalType":"uint256"},{"name":"","type":"address","internalType":"address"}],"outputs":[{"name":"","type":"bool","internalType":"bool"}],"stateMutability":"view"},{"type":"function","name":"hasDemoVoted","inputs":[{"name":"","type":"uint256","internalType":"uint256"},{"name":"","type":"bytes32","internalType":"bytes32"}],"outputs":[{"name":"","type":"bool","internalType":"bool"}],"stateMutability":"view"},{"type":"function","name":"hasVoted","inputs":[{"name":"","type":"uint256","internalType":"uint256"},{"name":"","type":"address","internalType":"address"}],"outputs":[{"name":"","type":"bool","internalType":"bool"}],"stateMutability":"view"},{"type":"function","name":"houseBalance","inputs":[],"outputs":[{"name":"","type":"uint256","internalType":"uint256"}],"stateMutability":"view"},{"type":"function","name":"isPollActive","inputs":[{"name":"pollId","type":"uint256","internalType":"uint256"}],"outputs":[{"name":"active","type":"bool","internalType":"bool"}],"stateMutability":"view"},{"type":"function","name":"optionPools","inputs":[{"name":"","type":"uint256","internalType":"uint256"},{"name":"","type":"uint256","internalType":"uint256"}],"outputs":[{"name":"","type":"uint256","internalType":"uint256"}],"stateMutability":"view"},{"type":"function","name":"owner","inputs":[],"outputs":[{"name":"","type":"address","internalType":"address"}],"stateMutability":"view"},{"type":"function","name":"pollCount","inputs":[],"outputs":[{"name":"","type":"uint256","internalType":"uint256"}],"stateMutability":"view"},{"type":"function","name":"polls","inputs":[{"name":"","type":"uint256","internalType":"uint256"}],"outputs":[{"name":"question","type":"string","internalType":"string"},{"name":"stakeAmount","type":"uint256","internalType":"uint256"},{"name":"endTime","type":"uint256","internalType":"uint256"},{"name":"winningOption","type":"uint256","internalType":"uint256"},{"name":"resolved","type":"bool","internalType":"bool"},{"name":"creator","type":"address","internalType":"address"},{"name":"isDemoMode","type":"bool","internalType":"bool"}],"stateMutability":"view"},{"type":"function","name":"resolvePoll","inputs":[{"name":"pollId","type":"uint256","internalType":"uint256"}],"outputs":[],"stateMutability":"nonpayable"},{"type":"function","name":"transferOwnership","inputs":[{"name":"newOwner","type":"address","internalType":"address"}],"outputs":[],"stateMutability":"nonpayable"},{"type":"function","name":"userVotes","inputs":[{"name":"","type":"uint256","internalType":"uint256"},{"name":"","type":"address","internalType":"address"}],"outputs":[{"name":"voter","type":"address","internalType":"address"},{"name":"optionId","type":"uint256","internalType":"uint256"},{"name":"amount","type":"uint256","internalType":"uint256"},{"name":"timestamp","type":"uint256","internalType":"uint256"}],"stateMutability":"view"},{"type":"function","name":"vote","inputs":[{"name":"pollId","type":"uint256","internalType":"uint256"},{"name":"optionId","type":"uint256","internalType":"uint256"}],"outputs":[],"stateMutability":"payable"},{"type":"function","name":"voteCounts","inputs":[{"name":"","type":"uint256","internalType":"uint256"},{"name":"","type":"uint256","internalType":"uint256"}],"outputs":[{"name":"","type":"uint256","internalType":"uint256"}],"stateMutability":"view"},{"type":"function","name":"withdrawHouseFees","inputs":[],"outputs":[],"stateMutability":"nonpayable"},{"type":"event","name":"DemoVoteCast","inputs":[{"name":"pollId","type":"uint256","indexed":true,"internalType":"uint256"},{"name":"tempVoterId","type":"bytes32","indexed":true,"internalType":"bytes32"},{"name":"optionId","type":"uint256","indexed":false,"internalType":"uint256"},{"name":"timestamp","type":"uint256","indexed":false,"internalType":"uint256"}],"anonymous":false},{"type":"event","name":"PollCreated","inputs":[{"name":"pollId","type":"uint256","indexed":true,"internalType":"uint256"},{"name":"question","type":"string","indexed":false,"internalType":"string"},{"name":"stakeAmount","type":"uint256","indexed":false,"internalType":"uint256"},{"name":"endTime","type":"uint256","indexed":false,"internalType":"uint256"},{"name":"isDemoMode","type":"bool","indexed":false,"internalType":"bool"}],"anonymous":false},{"type":"event","name":"PollResolved","inputs":[{"name":"pollId","type":"uint256","indexed":true,"internalType":"uint256"},{"name":"winningOption","type":"uint256","indexed":false,"internalType":"uint256"},{"name":"totalPool","type":"uint256","indexed":false,"internalType":"uint256"},{"name":"winnerCount","type":"uint256","indexed":false,"internalType":"uint256"}],"anonymous":false},{"type":"event","name":"VoteCast","inputs":[{"name":"pollId","type":"uint256","indexed":true,"internalType":"uint256"},{"name":"voter","type":"address","indexed":true,"internalType":"address"},{"name":"optionId","type":"uint256","indexed":false,"internalType":"uint256"},{"name":"amount","type":"uint256","indexed":false,"internalType":"uint256"},{"name":"timestamp","type":"uint256","indexed":false,"internalType":"uint256"}],"anonymous":false},{"type":"event","name":"WinningsClaimed","inputs":[{"name":"pollId","type":"uint256","indexed":true,"internalType":"uint256"},{"name":"winner","type":"address","indexed":true,"internalType":"address"},{"name":"amount","type":"uint256","indexed":false,"internalType":"uint256"}],"anonymous":false},{"type":"error","name":"AlreadyClaimed","inputs":[]},{"type":"error","name":"AlreadyResolved","inputs":[]},{"type":"error","name":"AlreadyVoted","inputs":[]},{"type":"error","name":"DemoModeOnly","inputs":[]},{"type":"error","name":"IncorrectStake","inputs":[]},{"type":"error","name":"InvalidDuration","inputs":[]},{"type":"error","name":"InvalidOption","inputs":[]},{"type":"error","name":"InvalidOptionsCount","inputs":[]},{"type":"error","name":"NoWinnings","inputs":[]},{"type":"error","name":"NotOwner","inputs":[]},{"type":"error","name":"NotPollCreator","inputs":[]},{"type":"error","name":"PollEnded","inputs":[]},{"type":"error","name":"PollNotEnded","inputs":[]},{"type":"error","name":"PollNotFound","inputs":[]},{"type":"error","name":"PollNotResolved","inputs":[]},{"type":"error","name":"TransferFailed","inputs":[]}],"bytecode":{"object":"0x6080806040523461002857600a80546001600160a01b03191633179055611ce1908161002d8239f35b5f80fdfe608080604052600436101561001c575b50361561001a575f80fd5b005b5f3560e01c90816303c7881a146117b8575080631a8cbcaa146115cb57806327536b28146113fc5780632ec15480146113c45780633a35b9bd146113a65780633b1f2a5414610e265780634385963214610ddd57806353f7aa5214610c795780635537be7f14610c5e5780635ba7b67414610c3957806367084eb314610c1c578063677bd9ff14610a8e578063873f6f9e14610a455780638a241f4c146109cc5780638cd429911461099b5780638da5cb5b146109735780639207891d146109565780639807342e146108f8578063a4141042146108c4578063ac2f00741461082e578063b384abef1461067c578063ba3f847014610592578063c14b8d9114610514578063c6f3fbcc146104e5578063d2daa1c2146104b6578063e74fef3714610289578063f2fde38b14610246578063f677b4d4146101df5763fe5b3e3b14610167575f61000f565b346101db5760403660031901126101db57610180611860565b6004355f9081526003602081815260408084206001600160a01b0395861685528252928390208054600182015460028301549290940154855191909616815291820192909252918201526060810191909152608090f35b0390f35b5f80fd5b346101db575f3660031901126101db57600a546001600160a01b031633819003610234575f8080809360095490826009555af161021a611b29565b501561022257005b6040516312171d8360e31b8152600490fd5b6040516330cd747160e01b8152600490fd5b346101db5760203660031901126101db576004356001600160a01b03818116918290036101db57600a549081163303610234576001600160a01b03191617600a55005b346101db576020806003193601126101db57600435906008548210156104a457815f525f8152600360405f200154421061048f57815f525f815260405f20600581019081549160018060a01b03808460081c163314159081610480575b5061046e5760ff831661045c575f92919291855f528260019485875260405f205f805287528560405f205497819082840154915b828110610407575050506004929360ff191617809455015561033b85611bb2565b92831591821590816103f8575b50610397575b50506103927f0a65a31222d4c537fe1231c104b70495998ef0979f26ccb3440810cf056d686f93604051938493846040919493926060820195825260208201520152565b0390a2005b83901b9083820460021417156103e4577f0a65a31222d4c537fe1231c104b70495998ef0979f26ccb3440810cf056d686f936103db60646103929304600954611a73565b6009559361034e565b634e487b7160e01b5f52601160045260245ffd5b60ff915060a81c161587610348565b91939594509150895f5287825260405f20815f5282528860405f20541161043e575b61043290611a65565b9187918794959361031a565b5f8a8152888352604080822083835284529020549850955085610429565b6040516336ab81e160e11b8152600490fd5b60405163f7ef226760e01b8152600490fd5b9050600a5416331415866102e6565b60405160016202e89b60e11b03198152600490fd5b604051633e75bf7b60e21b8152600490fd5b346101db576104c4366118e4565b905f52600160205260405f20905f52602052602060405f2054604051908152f35b346101db576104f3366118e4565b905f52600260205260405f20905f52602052602060405f2054604051908152f35b346101db576020806003193601126101db57600435906008548210156104a457815f525f8152600160405f2001549061054c82611b58565b925f5b83811061056457604051806101d787826118fa565b61058d90825f526002845260405f20815f52845260405f20546105878288611b8a565b52611a65565b61054f565b346101db576020806003193601126101db57600a5460043591906001600160a01b03163303610234576008548210156104a457815f525f815260405f20600581019081549160ff831661045c575f92919291855f528260019485875260405f205f805287528560405f205497819082840154915b828110610627575050506004929360ff191617809455015561033b85611bb2565b91939594509150895f5287825260405f20815f5282528860405f20541161065e575b61065290611a65565b91879187949593610606565b5f8a8152888352604080822083835284529020549850955085610649565b610685366118e4565b906008548110156104a457805f5260205f8152600360405f20015442101561081c57815f525f815260405f206004825260405f20335f52825260ff60405f20541661080a5760018101548410156107f8576002015434036107e657815f526004815260405f20335f52815260405f20600160ff1982541617905560405161070b81611988565b3381526003828201858152604083013481526060840191428352865f5283865260405f20335f52865260405f209460018060a01b039051166bffffffffffffffffffffffff60a01b86541617855551600185015551600284015551910155815f526001815260405f20835f52815260405f206107878154611a65565b9055815f526002815260405f2090835f525260405f206107a8348254611a73565b905560408051928352346020840152429083015233917fd2923bb3110158db9faf4ddebb23415fbdc40f3d031bfd865f75277ed1b1bca290606090a3005b6040516355fae5f560e01b8152600490fd5b604051632a71953160e01b8152600490fd5b604051637c9a1cf960e01b8152600490fd5b60405163969f98a360e01b8152600490fd5b346101db5760203660031901126101db576004355f525f60205261088660405f20610858816119c4565b9060ff600282015491600381015490600560048201549101549160405196879660e0885260e0880190611876565b60208701959095526040860152606085015280821615156080850152600881901c6001600160a01b031660a085015260a81c16151560c08301520390f35b346101db576108d2366118e4565b905f52600660205260405f20905f52602052602060ff60405f2054166040519015158152f35b346101db57610906366118e4565b5f9182526005602090815260408084209284529181529181902080546001820154600283015460039093015484516001600160a01b03909316835294820152918201526060810191909152608090f35b346101db575f3660031901126101db576020600854604051908152f35b346101db575f3660031901126101db57600a546040516001600160a01b039091168152602090f35b346101db5760203660031901126101db576004356008548110156104a4576109c4602091611cbb565b604051908152f35b346101db576020806003193601126101db57600435906008548210156104a457815f525f81526001908160405f20015491610a0683611b58565b935f5b848110610a1e57604051806101d788826118fa565b610a4090825f5283855260405f20815f52855260405f20546105878289611b8a565b610a09565b346101db5760403660031901126101db57610a5e611860565b6004355f52600760205260405f209060018060a01b03165f52602052602060ff60405f2054166040519015158152f35b346101db576020806003193601126101db576004356008548110156104a457805f525f825260ff600560405f2001541615610c0a57805f525f825260405f2060ff600582015460a81c16610bf857815f526004835260405f20335f52835260ff60405f20541615610bf857815f526003835260405f20335f5283526004600160405f200154910190815403610bf857815f526007835260405f20335f52835260ff60405f205416610be657815f526007835260405f20335f52835260405f20600160ff19825416179055610b6182611bb2565b908160011b828104600214831517156103e457610ba2926064610b85920490611b1c565b90835f526001855260405f2090545f52845260405f205490611afe565b915f80808086335af1610bb3611b29565b5015610222577f5380cf6fe903b40c6d5a9e0dfbca2f3a423f0a21520b4d5947ed5169bdba946d906040519384523393a3005b604051630c8d9eab60e31b8152600490fd5b6040516330a748d360e11b8152600490fd5b60405163557a143b60e01b8152600490fd5b346101db575f3660031901126101db576020600954604051908152f35b346101db57610c47366118e4565b906008548110156104a4576020916109c491611c16565b346101db575f3660031901126101db57602060405160028152f35b346101db5760603660031901126101db5760043560243590604435916008548210156104a457815f5260205f8152600360405f20015442101561081c57825f525f815260405f2060ff600582015460a81c1615610dcb57835f526006825260405f20855f52825260ff60405f20541661080a57600101548210156107f8577f5213d9f65784c2d8b5702b29489e8ee2fa5a9fcd414001274ea7e4655466603891604091845f5260068152825f20865f528152825f20600160ff198254161790558251610d4481611988565b5f815260038282018481528583015f81526060840191428352895f5260058652875f208b5f528652875f209460018060a01b039051166bffffffffffffffffffffffff60a01b86541617855551600185015551600284015551910155845f5260018152825f20825f528152825f20610dbc8154611a65565b905582519182524290820152a3005b604051635bc8457160e11b8152600490fd5b346101db5760403660031901126101db57610df6611860565b6004355f52600460205260405f209060018060a01b03165f52602052602060ff60405f2054166040519015158152f35b346101db5760a03660031901126101db576004356001600160401b0381116101db57366023820112156101db576001600160401b038160040135116101db573660248260040135830101116101db576024356001600160401b0381116101db57610e949036906004016118b4565b608435926064359284151585036101db5760028310801561139c575b61138a5783156113785760085493610ec785611a65565b600855603c8102908104603c036103e457610ee29042611a73565b9260405191610ef08361196c565b610f0236856004013560248701611a9b565b8352610f0d82611ad1565b91610f1b60405193846119a3565b80835260208301368260051b8401116101db5782905b8260051b840182106113395750505050602082015260443560408201528260608201525f60808201525f60a08201523360c082015284151560e0820152835f525f60205260405f2081518051906001600160401b038211611212578190610f988454611934565b601f8111611309575b50602090601f83116001146112a5575f9261129a575b50508160011b915f199060031b1c19161781555b6020820151805190680100000000000000008211611212576001830154826001850155808310611226575b5060200190600183015f5260205f20915f905b8282106110fa57602089807f285c7844d4d9cde42b09f3398071f0be7f4f0a953d9de21353e046fde77cee538d60a08d8d8d60058e604083015160028201556060830151600382015560808301516004820155019084810151151590825460ff610100600160a81b0360c084015160081b169260e08260a81b910151151560a81b1693169069ffffffffffffffffffff60b01b1617171790556040519384926080845282600401356080850152826004013560248401868601375f858460040135860101526044358a850152604084015215156060830152601f8019916004013501168101030190a2604051908152f35b80518051906001600160401b038211611212576111178654611934565b601f81116111d7575b50602090601f831160011461116b5792826001949360209386955f92611160575b50505f19600383901b1c191690841b1787555b01940191019092611009565b015190508f80611141565b90865f5260205f20915f5b601f19851681106111bf575083602093600196938796938794601f198116106111a7575b505050811b018755611154565b01515f1960f88460031b161c191690558f808061119a565b91926020600181928685015181550194019201611176565b61120290875f5260205f20601f850160051c81019160208610611208575b601f0160051c0190611ae8565b8c611120565b90915081906111f5565b634e487b7160e01b5f52604160045260245ffd5b600184015f5260205f20908382015b8183018110611245575050610ff6565b8061125260019254611934565b8061125f575b5001611235565b601f8111831461127457505f81555b8c611258565b5f90828252611291601f60208420920160051c8201858301611ae8565b8183555561126e565b015190508880610fb7565b5f858152602081209350601f198516905b8181106112f157509084600195949392106112d9575b505050811b018155610fcb565b01515f1960f88460031b161c191690558880806112cc565b929360206001819287860151815501950193016112b6565b61133390855f5260205f20601f850160051c8101916020861061120857601f0160051c0190611ae8565b89610fa1565b81356001600160401b0381116101db5736601f8287010112156101db57602091829161136d90369088018035908501611a9b565b815201910190610f31565b604051637616640160e01b8152600490fd5b60405163447074b560e01b8152600490fd5b50600a8311610eb0565b346101db5760203660031901126101db5760206109c4600435611bb2565b346101db5760203660031901126101db576004356008548110156104a4575f525f6020526020600360405f2001544210604051908152f35b346101db5760403660031901126101db576004356024356001600160401b0381116101db5761142f9036906004016118b4565b90916008548110156104a457805f526020905f825260ff91600590838260405f2001541615610c0a57825f525f815260405f2095828701549460018060a01b0395868160081c16330361046e5760a81c8116610bf85761148e85611bb2565b9160019280841b818104600214821517156103e4576114d49160646114b4920490611b1c565b875f52848652600460405f209b019a8b545f52865260405f205490611afe565b945f5b8981106114e057005b80821b830135908982168092036101db5761155891895f526004885260405f20815f5288528560405f2054161580156115ae575b801561158d575b611552575f8a81526007895260408082208383528a528120805460ff1916891790558080808c855af161154c611b29565b5061155d575b50611a65565b6114d7565b897f5380cf6fe903b40c6d5a9e0dfbca2f3a423f0a21520b4d5947ed5169bdba946d896040518c8152a38c611552565b50895f526003885260405f20815f5288528660405f2001548d54141561151b565b50895f526007885260405f20815f5288528560405f205416611514565b346101db5760203660031901126101db576004355f60e06040516115ee8161196c565b60608152606060208201528260408201528260608201528260808201528260a08201528260c082015201526008548110156104a4575f525f60205260405f206040519061163a8261196c565b611643816119c4565b82526001810190815461165581611ad1565b9261166360405194856119a3565b81845260208401905f5260205f205f915b83831061179b57868660ff600588602085019384526002810154604086015260038101546060860152600481015460808601520154818116151560a085015260018060a01b038160081c1660c085015260a81c16151560e083015260405190602082526116ef83516101006020850152610120840190611876565b905190601f19838203016040840152815180825260208201916020808360051b8301019401925f915b83831061176e5786808760e08b6040810151606085015260608101516080850152608081015160a085015260a0810151151560c085015260018060a01b0360c08201511682850152015115156101008301520390f35b909192939460208061178c600193601f198682030187528951611876565b97019301930191939290611718565b6001602081926117aa856119c4565b815201920192019190611674565b346101db5760403660031901126101db576004356117d4611860565b60085482101561185157606092505f8091835f52600460205260405f209060018060a01b031690815f5260205260ff60405f2054169384611826575b5050604051921515835260208301526040820152f35b915091505f52600360205260405f20905f5260205260405f2060026001820154910154908480611810565b633e75bf7b60e21b8352600483fd5b602435906001600160a01b03821682036101db57565b91908251928382525f5b8481106118a0575050825f602080949584010152601f8019910116010190565b602081830181015184830182015201611880565b9181601f840112156101db578235916001600160401b0383116101db576020808501948460051b0101116101db57565b60409060031901126101db576004359060243590565b602090816040818301928281528551809452019301915f5b828110611920575050505090565b835185529381019392810192600101611912565b90600182811c92168015611962575b602083101461194e57565b634e487b7160e01b5f52602260045260245ffd5b91607f1691611943565b61010081019081106001600160401b0382111761121257604052565b608081019081106001600160401b0382111761121257604052565b90601f801991011681019081106001600160401b0382111761121257604052565b9060405191825f8254926119d784611934565b9081845260019485811690815f14611a425750600114611a02575b5050611a00925003836119a3565b565b909391505f52602090815f20935f915b818310611a2a575050611a0093508201015f806119f2565b85548884018501529485019487945091830191611a12565b915050611a0094506020925060ff191682840152151560051b8201015f806119f2565b5f1981146103e45760010190565b919082018092116103e457565b6001600160401b03811161121257601f01601f191660200190565b929192611aa782611a80565b91611ab560405193846119a3565b8294818452818301116101db578281602093845f960137010152565b6001600160401b0381116112125760051b60200190565b818110611af3575050565b5f8155600101611ae8565b8115611b08570490565b634e487b7160e01b5f52601260045260245ffd5b919082039182116103e457565b3d15611b53573d90611b3a82611a80565b91611b4860405193846119a3565b82523d5f602084013e565b606090565b90611b6282611ad1565b611b6f60405191826119a3565b8281528092611b80601f1991611ad1565b0190602036910137565b8051821015611b9e5760209160051b010190565b634e487b7160e01b5f52603260045260245ffd5b6008548110156104a4575f9080825260208281526040600181852001549184935b838510611be257505050505090565b9091929394611c07611c0d91835f5260028552855f20885f528552855f205490611a73565b95611a65565b93929190611bd3565b9190915f928184528360205260ff600560408620015460a81c168015611ca0575b611c9c57611c4482611bb2565b8060011b81810460021482151715611c885791611c6c611c8595969260646040950490611b1c565b9382526001602052828220908252602052205490611afe565b90565b634e487b7160e01b86526011600452602486fd5b5050565b50600160205260408420818552602052604084205415611c37565b5f525f602052600360405f20015480421015611cdc57611c85904290611b1c565b505f9056","linkReferences":{}},"methodIdentifiers":{"HOUSE_FEE_PERCENT()":"5537be7f","batchClaimWinnings(uint256,address[])":"27536b28","calculatePotentialWinnings(uint256,uint256)":"5ba7b674","claimWinnings(uint256)":"677bd9ff","createPoll(string,string[],uint256,uint256,bool)":"3b1f2a54","demoVote(uint256,uint256,bytes32)":"53f7aa52","demoVotes(uint256,bytes32)":"9807342e","emergencyResolvePoll(uint256)":"ba3f8470","getOptionPools(uint256)":"c14b8d91","getPoll(uint256)":"1a8cbcaa","getTimeRemaining(uint256)":"8cd42991","getTotalPool(uint256)":"3a35b9bd","getUserVote(uint256,address)":"03c7881a","getVoteCounts(uint256)":"8a241f4c","hasClaimed(uint256,address)":"873f6f9e","hasDemoVoted(uint256,bytes32)":"a4141042","hasVoted(uint256,address)":"43859632","houseBalance()":"67084eb3","isPollActive(uint256)":"2ec15480","optionPools(uint256,uint256)":"c6f3fbcc","owner()":"8da5cb5b","pollCount()":"9207891d","polls(uint256)":"ac2f0074","resolvePoll(uint256)":"e74fef37","transferOwnership(address)":"f2fde38b","userVotes(uint256,address)":"fe5b3e3b","vote(uint256,uint256)":"b384abef","voteCounts(uint256,uint256)":"d2daa1c2","withdrawHouseFees()":"f677b4d4"},"id":19}